{
  "_format": "hh-sol-artifact-1",
  "contractName": "StakingPool",
  "sourceName": "contracts/ethereum/StakingPool.sol",
  "abi": [
    {
      "inputs": [
        {
          "internalType": "address",
          "name": "_stakingToken",
          "type": "address"
        },
        {
          "internalType": "uint256",
          "name": "_lockinBlocks",
          "type": "uint256"
        },
        {
          "internalType": "address",
          "name": "_operator",
          "type": "address"
        }
      ],
      "stateMutability": "nonpayable",
      "type": "constructor"
    },
    {
      "anonymous": false,
      "inputs": [
        {
          "indexed": true,
          "internalType": "uint256",
          "name": "depositNumber",
          "type": "uint256"
        },
        {
          "indexed": true,
          "internalType": "address",
          "name": "depositor",
          "type": "address"
        },
        {
          "indexed": false,
          "internalType": "uint256",
          "name": "amount",
          "type": "uint256"
        },
        {
          "indexed": false,
          "internalType": "uint256",
          "name": "unlockBlock",
          "type": "uint256"
        }
      ],
      "name": "Deposited",
      "type": "event"
    },
    {
      "anonymous": false,
      "inputs": [
        {
          "indexed": true,
          "internalType": "uint256",
          "name": "depositNumber",
          "type": "uint256"
        }
      ],
      "name": "EmegencyWithdrawToken",
      "type": "event"
    },
    {
      "anonymous": false,
      "inputs": [
        {
          "indexed": true,
          "internalType": "address",
          "name": "previousOwner",
          "type": "address"
        },
        {
          "indexed": true,
          "internalType": "address",
          "name": "newOwner",
          "type": "address"
        }
      ],
      "name": "OwnershipTransferred",
      "type": "event"
    },
    {
      "anonymous": false,
      "inputs": [
        {
          "indexed": true,
          "internalType": "uint256",
          "name": "depositNumber",
          "type": "uint256"
        }
      ],
      "name": "Withdraw",
      "type": "event"
    },
    {
      "anonymous": false,
      "inputs": [
        {
          "indexed": true,
          "internalType": "uint256",
          "name": "depositNumber",
          "type": "uint256"
        }
      ],
      "name": "WithdrawVestedReward",
      "type": "event"
    },
    {
      "inputs": [],
      "name": "MAX_LOOP_ITERATIONS",
      "outputs": [
        {
          "internalType": "uint256",
          "name": "",
          "type": "uint256"
        }
      ],
      "stateMutability": "view",
      "type": "function"
    },
    {
      "inputs": [
        {
          "internalType": "uint256",
          "name": "amount",
          "type": "uint256"
        }
      ],
      "name": "deposit",
      "outputs": [],
      "stateMutability": "nonpayable",
      "type": "function"
    },
    {
      "inputs": [],
      "name": "depositCounter",
      "outputs": [
        {
          "internalType": "uint256",
          "name": "",
          "type": "uint256"
        }
      ],
      "stateMutability": "view",
      "type": "function"
    },
    {
      "inputs": [
        {
          "internalType": "uint256",
          "name": "",
          "type": "uint256"
        }
      ],
      "name": "deposits",
      "outputs": [
        {
          "internalType": "uint256",
          "name": "amount",
          "type": "uint256"
        },
        {
          "internalType": "uint256",
          "name": "startBlock",
          "type": "uint256"
        },
        {
          "internalType": "uint256",
          "name": "unlockBlock",
          "type": "uint256"
        },
        {
          "internalType": "address",
          "name": "user",
          "type": "address"
        },
        {
          "internalType": "enum StakingPool.DepositState",
          "name": "depositState",
          "type": "uint8"
        },
        {
          "internalType": "uint256",
          "name": "vestedRewardUnlockBlock",
          "type": "uint256"
        },
        {
          "internalType": "uint256",
          "name": "vestedRewards",
          "type": "uint256"
        }
      ],
      "stateMutability": "view",
      "type": "function"
    },
    {
      "inputs": [
        {
          "internalType": "uint256",
          "name": "depositNumber",
          "type": "uint256"
        }
      ],
      "name": "emergencyWithdraw",
      "outputs": [],
      "stateMutability": "nonpayable",
      "type": "function"
    },
    {
      "inputs": [
        {
          "internalType": "uint256[]",
          "name": "depositNumbers",
          "type": "uint256[]"
        }
      ],
      "name": "emergencyWithdrawMultiple",
      "outputs": [],
      "stateMutability": "nonpayable",
      "type": "function"
    },
    {
      "inputs": [],
      "name": "endBlock",
      "outputs": [
        {
          "internalType": "uint256",
          "name": "",
          "type": "uint256"
        }
      ],
      "stateMutability": "view",
      "type": "function"
    },
    {
      "inputs": [],
      "name": "factory",
      "outputs": [
        {
          "internalType": "address",
          "name": "",
          "type": "address"
        }
      ],
      "stateMutability": "view",
      "type": "function"
    },
    {
      "inputs": [
        {
          "internalType": "uint256",
          "name": "depositNumber",
          "type": "uint256"
        }
      ],
      "name": "getShkoobyVestedAmount",
      "outputs": [
        {
          "internalType": "uint256",
          "name": "",
          "type": "uint256"
        }
      ],
      "stateMutability": "view",
      "type": "function"
    },
    {
      "inputs": [],
      "name": "lockinBlocks",
      "outputs": [
        {
          "internalType": "uint256",
          "name": "",
          "type": "uint256"
        }
      ],
      "stateMutability": "view",
      "type": "function"
    },
    {
      "inputs": [],
      "name": "owner",
      "outputs": [
        {
          "internalType": "address",
          "name": "",
          "type": "address"
        }
      ],
      "stateMutability": "view",
      "type": "function"
    },
    {
      "inputs": [],
      "name": "renounceOwnership",
      "outputs": [],
      "stateMutability": "nonpayable",
      "type": "function"
    },
    {
      "inputs": [],
      "name": "stakingEndBlock",
      "outputs": [
        {
          "internalType": "uint256",
          "name": "",
          "type": "uint256"
        }
      ],
      "stateMutability": "view",
      "type": "function"
    },
    {
      "inputs": [],
      "name": "stakingToken",
      "outputs": [
        {
          "internalType": "address",
          "name": "",
          "type": "address"
        }
      ],
      "stateMutability": "view",
      "type": "function"
    },
    {
      "inputs": [],
      "name": "startBlock",
      "outputs": [
        {
          "internalType": "uint256",
          "name": "",
          "type": "uint256"
        }
      ],
      "stateMutability": "view",
      "type": "function"
    },
    {
      "inputs": [],
      "name": "totalBlocksPerYear",
      "outputs": [
        {
          "internalType": "uint256",
          "name": "",
          "type": "uint256"
        }
      ],
      "stateMutability": "view",
      "type": "function"
    },
    {
      "inputs": [
        {
          "internalType": "address",
          "name": "newOwner",
          "type": "address"
        }
      ],
      "name": "transferOwnership",
      "outputs": [],
      "stateMutability": "nonpayable",
      "type": "function"
    },
    {
      "inputs": [],
      "name": "tvl",
      "outputs": [
        {
          "internalType": "uint256",
          "name": "",
          "type": "uint256"
        }
      ],
      "stateMutability": "view",
      "type": "function"
    },
    {
      "inputs": [
        {
          "internalType": "uint256",
          "name": "depositNumber",
          "type": "uint256"
        }
      ],
      "name": "withdrawShkooby",
      "outputs": [],
      "stateMutability": "nonpayable",
      "type": "function"
    },
    {
      "inputs": [
        {
          "internalType": "uint256[]",
          "name": "depositNumbers",
          "type": "uint256[]"
        }
      ],
      "name": "withdrawShkoobyMultiple",
      "outputs": [],
      "stateMutability": "nonpayable",
      "type": "function"
    },
    {
      "inputs": [
        {
          "internalType": "uint256",
          "name": "depositNumber",
          "type": "uint256"
        }
      ],
      "name": "withdrawVestedShkooby",
      "outputs": [],
      "stateMutability": "nonpayable",
      "type": "function"
    },
    {
      "inputs": [
        {
          "internalType": "uint256[]",
          "name": "depositNumbers",
          "type": "uint256[]"
        }
      ],
      "name": "withdrawVestedShkoobyMultiple",
      "outputs": [],
      "stateMutability": "nonpayable",
      "type": "function"
    }
  ],
  "bytecode": "0x6101406040523480156200001257600080fd5b506040516200239038038062002390833981810160405260608110156200003857600080fd5b5080516020820151604090920151909190600062000055620001d4565b600080546001600160a01b0319166001600160a01b03831690811782556040519293509160008051602062002370833981519152908290a3506040805180820190915260018152604360f81b602082015262249f008310620001385760405162461bcd60e51b81526004018080602001828103825283818151815260200191508051906020019080838360005b83811015620000fc578181015183820152602001620000e2565b50505050905090810190601f1680156200012a5780820380516001836020036101000a031916815260200191505b509250505060405180910390fd5b503360601b60805260a08290524360c0819052620001669062249f00620001d8602090811b6200180417901c565b60e0526200019d6200018862249f00846200023a602090811b6200186717901c565b43620001d860201b620018041790919060201c565b61010052606083901b6001600160601b03191661012052620001cb8162000284602090811b620016fa17901c565b505050620003df565b3390565b60008282018381101562000233576040805162461bcd60e51b815260206004820152601b60248201527f536166654d6174683a206164646974696f6e206f766572666c6f770000000000604482015290519081900360640190fd5b9392505050565b60006200023383836040518060400160405280601e81526020017f536166654d6174683a207375627472616374696f6e206f766572666c6f7700008152506200038260201b60201c565b6200028e620001d4565b6000546001600160a01b03908116911614620002f1576040805162461bcd60e51b815260206004820181905260248201527f4f776e61626c653a2063616c6c6572206973206e6f7420746865206f776e6572604482015290519081900360640190fd5b6001600160a01b038116620003385760405162461bcd60e51b81526004018080602001828103825260268152602001806200234a6026913960400191505060405180910390fd5b600080546040516001600160a01b03808516939216916000805160206200237083398151915291a3600080546001600160a01b0319166001600160a01b0392909216919091179055565b60008184841115620003d75760405162461bcd60e51b8152602060048201818152835160248401528351909283926044909101919085019080838360008315620000fc578181015183820152602001620000e2565b505050900390565b60805160601c60a05160c05160e051610100516101205160601c611edf6200046b60003980610b225280610d03528061107d52806115665250806104755280610f9c52508061045152806114ae52806114d752508061084252508061049952806110b55250806107b05280610b5f52806111b0528061128252806115a552806118ae5250611edf6000f3fe608060405234801561001057600080fd5b50600436106101425760003560e01c8063b02c43d0116100b8578063c45a01551161007c578063c45a015514610384578063dfad72901461038c578063e5328e06146103a9578063e8e08750146103b1578063ecb3dc8814610421578063f2fde38b1461042957610142565b8063b02c43d014610276578063b3df08d3146102e7578063b6b55f2514610357578063bbdddefe14610374578063c17c19ce1461037c57610142565b806348cd4cb11161010a57806348cd4cb1146101ad5780635312ea8e146101b5578063715018a6146101d257806372f702f3146101da5780638da5cb5b146101fe578063925f5e021461020657610142565b8063083c6323146101475780630a122c8a146101615780632febf5341461016957806332d5115714610171578063370079191461018e575b600080fd5b61014f61044f565b60408051918252519081900360200190f35b61014f610473565b61014f610497565b61014f6004803603602081101561018757600080fd5b50356104bb565b6101ab600480360360208110156101a457600080fd5b503561052b565b005b61014f610840565b6101ab600480360360208110156101cb57600080fd5b5035610864565b6101ab610c4d565b6101e2610d01565b604080516001600160a01b039092168252519081900360200190f35b6101e2610d25565b6101ab6004803603602081101561021c57600080fd5b81019060208101813564010000000081111561023757600080fd5b82018360208201111561024957600080fd5b8035906020019184602083028401116401000000008311171561026b57600080fd5b509092509050610d34565b6102936004803603602081101561028c57600080fd5b5035610e37565b60405180888152602001878152602001868152602001856001600160a01b031681526020018460038111156102c457fe5b815260200183815260200182815260200197505050505050505060405180910390f35b6101ab600480360360208110156102fd57600080fd5b81019060208101813564010000000081111561031857600080fd5b82018360208201111561032a57600080fd5b8035906020019184602083028401116401000000008311171561034c57600080fd5b509092509050610e84565b6101ab6004803603602081101561036d57600080fd5b5035610f82565b61014f611274565b61014f611279565b6101e2611280565b6101ab600480360360208110156103a257600080fd5b50356112a4565b61014f611657565b6101ab600480360360208110156103c757600080fd5b8101906020810181356401000000008111156103e257600080fd5b8201836020820111156103f457600080fd5b8035906020019184602083028401116401000000008311171561041657600080fd5b50909250905061165d565b61014f6116f4565b6101ab6004803603602081101561043f57600080fd5b50356001600160a01b03166116fa565b7f000000000000000000000000000000000000000000000000000000000000000081565b7f000000000000000000000000000000000000000000000000000000000000000081565b7f000000000000000000000000000000000000000000000000000000000000000081565b60008181526003602052604081206002600382810154600160a01b900460ff16908111156104e557fe5b146104f4576000915050610526565b60006105118260010154836002015461186790919063ffffffff16565b90506105218260000154826118a9565b925050505b919050565b8060026000828152600360208190526040909120810154600160a01b900460ff169081111561055657fe5b14604051806040016040528060018152602001600760fb1b815250906105fa5760405162461bcd60e51b81526004018080602001828103825283818151815260200191508051906020019080838360005b838110156105bf5781810151838201526020016105a7565b50505050905090810190601f1680156105ec5780820380516001836020036101000a031916815260200191505b509250505060405180910390fd5b5060008281526003602081815260409283902090910154825180840190935260018352601960f91b918301919091528391906001600160a01b031633146106825760405162461bcd60e51b81526020600482018181528351602484015283519092839260449091019190850190808383600083156105bf5781810151838201526020016105a7565b506040805180820190915260018152603760f81b60208201523332146106e95760405162461bcd60e51b81526020600482018181528351602484015283519092839260449091019190850190808383600083156105bf5781810151838201526020016105a7565b50600060036000858152602001908152602001600020905080600401544311604051806040016040528060018152602001603360f81b8152509061076e5760405162461bcd60e51b81526020600482018181528351602484015283519092839260449091019190850190808383600083156105bf5781810151838201526020016105a7565b5060038101805460ff60a01b1916600360a01b17905560058101546040805163b542479f60e01b81523360048201526024810192909252516001600160a01b037f0000000000000000000000000000000000000000000000000000000000000000169163b542479f91604480830192600092919082900301818387803b1580156107f757600080fd5b505af115801561080b573d6000803e3d6000fd5b50506040518692507f865461588b9adf55e8ae9cf5e461134885355b478b5f01ff6979e06c9840d5db9150600090a250505050565b7f000000000000000000000000000000000000000000000000000000000000000081565b8061086d611de7565b600082815260036020818152604092839020835160e08101855281548152600182015492810192909252600281015493820193909352828201546001600160a01b03811660608301529092916080840191600160a01b900460ff16908111156108d257fe5b60038111156108dd57fe5b815260048201546020820152600590910154604090910152905060028160800151600381111561090957fe5b1480610924575060018160800151600381111561092257fe5b145b604051806040016040528060018152602001604560f81b8152509061098a5760405162461bcd60e51b81526020600482018181528351602484015283519092839260449091019190850190808383600083156105bf5781810151838201526020016105a7565b5060008381526003602081815260409283902090910154825180840190935260018352601960f91b918301919091528491906001600160a01b03163314610a125760405162461bcd60e51b81526020600482018181528351602484015283519092839260449091019190850190808383600083156105bf5781810151838201526020016105a7565b506040805180820190915260018152603760f81b6020820152333214610a795760405162461bcd60e51b81526020600482018181528351602484015283519092839260449091019190850190808383600083156105bf5781810151838201526020016105a7565b50610a82611de7565b600085815260036020818152604092839020835160e08101855281548152600182015492810192909252600281015493820193909352828201546001600160a01b03811660608301529092916080840191600160a01b900460ff1690811115610ae757fe5b6003811115610af257fe5b81526004820154602082015260059091015460409091015260608101518151919250610b49916001600160a01b037f0000000000000000000000000000000000000000000000000000000000000000169190611976565b8051600254610b5791611867565b6002819055507f00000000000000000000000000000000000000000000000000000000000000006001600160a01b0316634a02893c6002546040518263ffffffff1660e01b815260040180828152602001915050600060405180830381600087803b158015610bc557600080fd5b505af1158015610bd9573d6000803e3d6000fd5b5050506000868152600360208190526040808320838155600181018490556002810184905591820180546001600160a81b0319169055600482018390556005909101829055518792507f41512c9e4515463c042ce2699bb33e42b9e74f41f44a408ad7ac5663cb51742f9190a25050505050565b610c556119c8565b6000546001600160a01b03908116911614610cb7576040805162461bcd60e51b815260206004820181905260248201527f4f776e61626c653a2063616c6c6572206973206e6f7420746865206f776e6572604482015290519081900360640190fd5b600080546040516001600160a01b03909116907f8be0079c531659141344cd1fd0a4f28419497f9722a3daafe3b4186f6b6457e0908390a3600080546001600160a01b0319169055565b7f000000000000000000000000000000000000000000000000000000000000000081565b6000546001600160a01b031690565b6040805180820190915260018152603760f81b6020820152333214610d9a5760405162461bcd60e51b81526020600482018181528351602484015283519092839260449091019190850190808383600083156105bf5781810151838201526020016105a7565b506040805180820190915260018152601160fa1b60208201526014821115610e035760405162461bcd60e51b81526020600482018181528351602484015283519092839260449091019190850190808383600083156105bf5781810151838201526020016105a7565b5060005b81811015610e3257610e2a838383818110610e1e57fe5b9050602002013561052b565b600101610e07565b505050565b60036020819052600091825260409091208054600182015460028301549383015460048401546005909401549294919391926001600160a01b03821692600160a01b90920460ff16919087565b6040805180820190915260018152603760f81b6020820152333214610eea5760405162461bcd60e51b81526020600482018181528351602484015283519092839260449091019190850190808383600083156105bf5781810151838201526020016105a7565b506040805180820190915260018152601160fa1b60208201526014821115610f535760405162461bcd60e51b81526020600482018181528351602484015283519092839260449091019190850190808383600083156105bf5781810151838201526020016105a7565b5060005b81811015610e3257610f7a838383818110610f6e57fe5b905060200201356112a4565b600101610f57565b6040805180820190915260018152603560f81b60208201527f000000000000000000000000000000000000000000000000000000000000000043106110085760405162461bcd60e51b81526020600482018181528351602484015283519092839260449091019190850190808383600083156105bf5781810151838201526020016105a7565b506040805180820190915260018152603760f81b602082015233321461106f5760405162461bcd60e51b81526020600482018181528351602484015283519092839260449091019190850190808383600083156105bf5781810151838201526020016105a7565b506110a56001600160a01b037f0000000000000000000000000000000000000000000000000000000000000000163330846119cc565b600180548101905560006110d9437f0000000000000000000000000000000000000000000000000000000000000000611804565b6040805160e0810182528481524360208201529081018290523360608201529091506080810160018152600060208083018290526040928301829052600180548352600380835292849020855181559185015190820155918301516002830155606083015182820180546001600160a01b0319166001600160a01b039092169190911780825560808501519260ff60a01b1990911690600160a01b90849081111561118057fe5b021790555060a0820151600482015560c0909101516005909101556002546111a89083611804565b6002819055507f00000000000000000000000000000000000000000000000000000000000000006001600160a01b0316634a02893c6002546040518263ffffffff1660e01b815260040180828152602001915050600060405180830381600087803b15801561121657600080fd5b505af115801561122a573d6000803e3d6000fd5b5050600154604080518681526020810186905281513395509293507fad5b4075b97dbf75ad5c78f7afac948e4ae611c4fdf2825e2ce3c6c96925bf3b929081900390910190a35050565b601481565b62249f0081565b7f000000000000000000000000000000000000000000000000000000000000000081565b8060016000828152600360208190526040909120810154600160a01b900460ff16908111156112cf57fe5b14604051806040016040528060018152602001603160f81b815250906113365760405162461bcd60e51b81526020600482018181528351602484015283519092839260449091019190850190808383600083156105bf5781810151838201526020016105a7565b5060008281526003602081815260409283902090910154825180840190935260018352601960f91b918301919091528391906001600160a01b031633146113be5760405162461bcd60e51b81526020600482018181528351602484015283519092839260449091019190850190808383600083156105bf5781810151838201526020016105a7565b506040805180820190915260018152603760f81b60208201523332146114255760405162461bcd60e51b81526020600482018181528351602484015283519092839260449091019190850190808383600083156105bf5781810151838201526020016105a7565b50600060036000858152602001908152602001600020905080600201544311604051806040016040528060018152602001600d60fa1b815250906114aa5760405162461bcd60e51b81526020600482018181528351602484015283519092839260449091019190850190808383600083156105bf5781810151838201526020016105a7565b50437f00000000000000000000000000000000000000000000000000000000000000008111156114f757507f00000000000000000000000000000000000000000000000000000000000000005b60038201805460ff60a01b1916600160a11b1790556115198162249f00611804565b6004830155600182015460028301546000916115359190611867565b905060006115478460000154836118a9565b600585018190556003850154855491925061158f916001600160a01b037f00000000000000000000000000000000000000000000000000000000000000008116921690611976565b835460025461159d91611867565b6002819055507f00000000000000000000000000000000000000000000000000000000000000006001600160a01b0316634a02893c6002546040518263ffffffff1660e01b815260040180828152602001915050600060405180830381600087803b15801561160b57600080fd5b505af115801561161f573d6000803e3d6000fd5b50506040518992507f5b6b431d4476a211bb7d41c20d1aab9ae2321deee0d20be3d9fc9b1093fa6e3d9150600090a250505050505050565b60025481565b6040805180820190915260018152601160fa1b602082015260148211156116c55760405162461bcd60e51b81526020600482018181528351602484015283519092839260449091019190850190808383600083156105bf5781810151838201526020016105a7565b5060005b81811015610e32576116ec8383838181106116e057fe5b90506020020135610864565b6001016116c9565b60015481565b6117026119c8565b6000546001600160a01b03908116911614611764576040805162461bcd60e51b815260206004820181905260248201527f4f776e61626c653a2063616c6c6572206973206e6f7420746865206f776e6572604482015290519081900360640190fd5b6001600160a01b0381166117a95760405162461bcd60e51b8152600401808060200182810382526026815260200180611e396026913960400191505060405180910390fd5b600080546040516001600160a01b03808516939216917f8be0079c531659141344cd1fd0a4f28419497f9722a3daafe3b4186f6b6457e091a3600080546001600160a01b0319166001600160a01b0392909216919091179055565b60008282018381101561185e576040805162461bcd60e51b815260206004820152601b60248201527f536166654d6174683a206164646974696f6e206f766572666c6f770000000000604482015290519081900360640190fd5b90505b92915050565b600061185e83836040518060400160405280601e81526020017f536166654d6174683a207375627472616374696f6e206f766572666c6f770000815250611a2c565b6000807f00000000000000000000000000000000000000000000000000000000000000006001600160a01b031663af4f1796306040518263ffffffff1660e01b815260040180826001600160a01b0316815260200191505060206040518083038186803b15801561191957600080fd5b505afa15801561192d573d6000803e3d6000fd5b505050506040513d602081101561194357600080fd5b505160025490915061196e9061196862249f008187611962878b611a86565b90611a86565b90611adf565b949350505050565b604080516001600160a01b038416602482015260448082018490528251808303909101815260649091019091526020810180516001600160e01b031663a9059cbb60e01b179052610e32908490611b21565b3390565b604080516001600160a01b0380861660248301528416604482015260648082018490528251808303909101815260849091019091526020810180516001600160e01b03166323b872dd60e01b179052611a26908590611b21565b50505050565b60008184841115611a7e5760405162461bcd60e51b81526020600482018181528351602484015283519092839260449091019190850190808383600083156105bf5781810151838201526020016105a7565b505050900390565b600082611a9557506000611861565b82820282848281611aa257fe5b041461185e5760405162461bcd60e51b8152600401808060200182810382526021815260200180611e5f6021913960400191505060405180910390fd5b600061185e83836040518060400160405280601a81526020017f536166654d6174683a206469766973696f6e206279207a65726f000000000000815250611bd2565b6060611b76826040518060400160405280602081526020017f5361666545524332303a206c6f772d6c6576656c2063616c6c206661696c6564815250856001600160a01b0316611c379092919063ffffffff16565b805190915015610e3257808060200190516020811015611b9557600080fd5b5051610e325760405162461bcd60e51b815260040180806020018281038252602a815260200180611e80602a913960400191505060405180910390fd5b60008183611c215760405162461bcd60e51b81526020600482018181528351602484015283519092839260449091019190850190808383600083156105bf5781810151838201526020016105a7565b506000838581611c2d57fe5b0495945050505050565b606061196e84846000856060611c4c85611dae565b611c9d576040805162461bcd60e51b815260206004820152601d60248201527f416464726573733a2063616c6c20746f206e6f6e2d636f6e7472616374000000604482015290519081900360640190fd5b60006060866001600160a01b031685876040518082805190602001908083835b60208310611cdc5780518252601f199092019160209182019101611cbd565b6001836020036101000a03801982511681845116808217855250505050505090500191505060006040518083038185875af1925050503d8060008114611d3e576040519150601f19603f3d011682016040523d82523d6000602084013e611d43565b606091505b50915091508115611d5757915061196e9050565b805115611d675780518082602001fd5b60405162461bcd60e51b81526020600482018181528651602484015286518793919283926044019190850190808383600083156105bf5781810151838201526020016105a7565b6000813f7fc5d2460186f7233c927e7db2dcc703c0e500b653ca82273b7bfad8045d85a470818114801590610521575050151592915050565b6040518060e0016040528060008152602001600081526020016000815260200160006001600160a01b0316815260200160006003811115611e2457fe5b81526020016000815260200160008152509056fe4f776e61626c653a206e6577206f776e657220697320746865207a65726f2061646472657373536166654d6174683a206d756c7469706c69636174696f6e206f766572666c6f775361666545524332303a204552433230206f7065726174696f6e20646964206e6f742073756363656564a2646970667358221220d78c6a3790e30a90982376725e416aa328dc09c3b835686ce3697490215d469964736f6c634300070000334f776e61626c653a206e6577206f776e657220697320746865207a65726f20616464726573738be0079c531659141344cd1fd0a4f28419497f9722a3daafe3b4186f6b6457e0",
  "linkReferences": {},
  "deployedLinkReferences": {}
}